:100000000C94AC000C94D4000C94D4000C944806CE
:100010000C9448060C9448060C94D4000C942306C7
:100020000C94D4000C94D4000C94D4000C94D40000
:100030000C94D4000C94C2060C94D4000C94D400FC
:100040000C9481050C94D4000C94F1050C94CB0510
:100050000C94D4000C94D4000C94D4000C94D400D0
:100060000C94D4000C94D400C104C904D304B0048B
:10007000D304B204D104DA04D304D304D304D304E4
:10008000D304D304D304D304DA04D304D304D304B1
:10009000D304D3044446506C61796572204D696E77
:1000A00069206F6E6C696E652E00322E506C656132
:1000B000736520696E73657274207468652053449B
:1000C00020636172642100312E506C65617365207C
:1000D0007265636865636B2074686520636F6E6E1C
:1000E000656374696F6E2100556E61626C65207482
:1000F0006F20626567696E3A0000000000240027E7
:10010000002A0000000008000201000003040700AC
:10011000000000000000000000000023002600296D
:100120000000000000250028002B00040404040443
:100130000404040202020202020303030303030194
:10014000020408102040800102040810200102046B
:1001500008102000E60DCA0D11241FBECFEFD8E015
:10016000DEBFCDBF11E0A0E0B1E0E0ECF3E202C001
:1001700005900D92A834B107D9F722E0A8E4B1E0C8
:1001800001C01D92AF3DB207E1F710E0CBEAD0E02D
:1001900004C02197FE010E948311CA3AD107C9F712
:1001A0000E94BE0A0C94D3110C940000CF92DF92EF
:1001B000EF92FF920F931F93CF93DF936C017A011D
:1001C0008B01C0E0D0E0CE15DF0581F0D8016D9144
:1001D0008D01D601ED91FC910190F081E02DC601D9
:1001E0000995892B11F02196EECF7E01C701DF9191
:1001F000CF911F910F91FF90EF90DF90CF900895D6
:10020000FC01538D448D252F30E0842F90E0821B1C
:10021000930B541710F0CF96089501970895FC01A1
:10022000918D828D981761F0828DDF01A80FB11D2D
:100230005D968C91928D9F5F9F73928F90E0089551
:100240008FEF9FEF0895FC01918D828D981731F00B
:10025000828DE80FF11D858D90E008958FEF9FEF5F
:100260000895FC01918D228D892F90E0805C9F4F35
:10027000821B91098F73992708958DE991E00E945F
:10028000310121E0892B09F420E0822F0895FC013F
:10029000848DDF01A80FB11DA35ABF4F2C91848D0F
:1002A00090E001968F739927848FA689B7892C9344
:1002B000A089B1898C91837080648C93938D848D97
:1002C000981306C00288F389E02D80818F7D80839A
:1002D0000895EF92FF920F931F93CF93DF93EC015A
:1002E00081E0888F9B8D8C8D981305C0E889F989F2
:1002F000808185FD26C0F62E0B8D10E00F5F1F4F0D
:100300000F731127E02E8C8DE8120CC00FB607FC7E
:10031000FACFE889F989808185FFF5CFCE010E9467
:100320004701F1CF8B8DFE01E80FF11DE35AFF4F1E
:10033000F0829FB7F8940B8FEA89FB8980818062F5
:100340000AC09FB7F894EE89FF896083E889F9892C
:1003500080818370806480839FBF81E090E0DF9123
:10036000CF911F910F91FF90EF900895CF93DF935E
:10037000EC01888D8823C9F0EA89FB89808185FD9D
:1003800005C0A889B9898C9186FD0FC00FB607FCFE
:10039000F5CF808185FFF2CFA889B9898C9185FF3F
:1003A000EDCFCE010E944701E7CFDF91CF910895B5
:1003B00080E090E0892B29F00E943D0181110C948E
:1003C0000000089520918E0130918F012817390780
:1003D00071F490918C0180918D01981741F0E0911A
:1003E0008C01F0E0E45BFE4F808190E008958FEF98
:1003F0009FEF089508951F93CF93DF93DC015C96E0
:100400008D919C915D97009739F421E030E013962F
:100410003C932E9312973BC05196ED91FC915297CD
:1004200050962C915097322F30951FB75E964C9175
:100430005E97742F727041FD6095F8944081772328
:1004400011F0422B01C043234083EC012197F1F7C7
:1004500048E0508160FF02C0522B01C053235083FB
:10046000EC012197F1F76695415099F78081772348
:1004700019F08323808302C0282B20831FBF5C9642
:100480008D919C915D970197F1F781E090E0DF916C
:10049000CF911F91089520918E0130918F012817DF
:1004A000390771F480918D0120918C0190E0805C7E
:1004B0009F4F821B910960E470E00E942E11089505
:1004C00080E090E0089520918E0130918F012817EF
:1004D0003907B9F490918C0180918D01981789F0BA
:1004E000E0918C01F0E0E45BFE4F808120918C0173
:1004F00030E02F5F3F4F2F73332720938C0190E024
:1005000008958FEF9FEF0895089580E090E008959B
:1005100080E290E0089586E090E0089585E091E023
:10052000089580E890E00895EF92FF920F931F9353
:10053000CF93DF938C017B01C1E0D0E0D801ED9136
:10054000FC910190F081E02DC80109958C179D0761
:1005500054F0CE15DF0521F4F801D78BC68B03C00C
:10056000CC0FDD1FEBCFD80156968D919C915797FC
:10057000DF91CF911F910F91FF90EF90089580E14F
:1005800090E0089585E090E0089580E091E008957E
:1005900008950F931F93CF93DF938C01C0E0D0E0B9
:1005A000F801EC0FFD1F6491662341F08DE991E0A5
:1005B0000E946901892B11F02196F2CF85E491E028
:1005C0000E94180A8C0F9D1FDF91CF911F910F91F0
:1005D00008950E94CE1190E0FC01ED5FFE4F249142
:1005E000FC01E15CFE4F3491FC01E55DFE4FE491BE
:1005F000EE2309F43CC0222339F1233091F038F482
:100600002130A9F0223001F584B58F7D12C027304A
:1006100091F02830A1F02430B9F4809180008F7DD2
:1006200003C0809180008F77809380000DC084B5D7
:100630008F7784BD09C08091B0008F7703C080910F
:10064000B0008F7D8093B000F0E0EE0FFF1FEF5DF4
:10065000FE4FA591B4919FB7F894611104C08C919D
:100660003095382302C0EC913E2B3C939FBF0895F8
:100670000F931F93CF93DF93EC010E9494028EA9F6
:100680009FA90196E9F188AD99AD0196C9F18AADAE
:100690009BAD0196A9F1E881F9810480F581E02DF7
:1006A000CE0109958C01E881F9810680F781E02D62
:1006B000CE01099520E030E08217930709F14E89B9
:1006C0005F89022E02C0559547950A94E2F740FFD4
:1006D00014C0F801E20FF31F1081612F64708AAD1E
:1006E0000E94EB02612F627088AD0E94EB02612FC5
:1006F00061708EA90E94EB0203C02F5F3F4FDCCFD9
:100700008E899F89DF91CF911F910F910895CF938B
:10071000DF9390E0FC01E15CFE4F2491FC01E55D7C
:10072000FE4F8491882361F190E0880F991FFC01AE
:10073000E750FF4FC591D491FC01EF5DFE4FA591AD
:10074000B491611109C09FB7F894888120958223E4
:100750008883EC912E230BC0623061F49FB7F8942C
:100760008881322F309583238883EC912E2B2C9314
:100770009FBF06C08FB7F894E8812E2B28838FBFC8
:10078000DF91CF9108953FB7F894809195019091B2
:100790009601A0919701B091980126B5A89B05C03C
:1007A0002F3F19F00196A11DB11D3FBFBA2FA92FF0
:1007B000982F8827820F911DA11DB11DBC01CD016D
:1007C00042E0660F771F881F991F4A95D1F7089559
:1007D0008F929F92AF92BF92CF92DF92EF92FF9251
:1007E0006B017C010E94C3034B015C01C114D10465
:1007F000E104F104F1F00E94C303DC01CB0188198C
:100800009909AA09BB09883E9340A105B10570F377
:1008100021E0C21AD108E108F10888EE880E83E0D1
:10082000981EA11CB11CC114D104E104F10419F7F4
:10083000DDCFFF90EF90DF90CF90BF90AF909F9073
:100840008F900895CF9380913A0290913B02DC0102
:10085000ED91FC910084F185E02D0995892B09F437
:10086000B9C060E070E0CB010E94E803C09158027B
:1008700080913A0290913B02DC01ED91FC9102845F
:10088000F385E02DC11108C00995809344028E378D
:10089000D1F6809158029AC00995EC2FF0E0E65C01
:1008A000FD4F8287809158028230A1F08930C1F0DB
:1008B000813009F08BC0909145029F3F09F486C0BA
:1008C0001092580281E080935A0210925D021092B9
:1008D0005C02B1C090914602963009F477C0F0CF27
:1008E00080914D028F3E61F7E5E4F2E08BE492E007
:1008F00020E030E04191240F311D8E179F07D1F782
:1009000080914B0290E0982F882740914C02840FF1
:10091000911D3195219531098217930789F610921F
:100920005802E0914702E13409F44DC0E0935B02C4
:100930008091490290E0982F882720914A02820FE7
:10094000911D90935D0280935C024E2F50E0FA015E
:10095000FA97E631F10570F5EC5CFF4F0C948311CA
:1009600085E022C080FF02C089E01EC081FF02C076
:1009700084E01AC083709927892B09F462C08AE049
:1009800013C080FF02C087E00FC081FF5AC082E021
:100990000BC080FF02C088E007C081FF52C083E027
:1009A00003C086E001C08BE080935A0281E080930F
:1009B0005E0247C081E080935A0210925D0210925D
:1009C0005C0280935E0210925F023BC08F5F809357
:1009D000580239CF80915F02882399F12FB7F8949C
:1009E0008091990190919A01A0919B01B0919C01F5
:1009F0002FBF40913C0250913D0260913E027091A8
:100A00003F02841B950BA60BB70B409140025091FF
:100A10004102609142027091430284179507A60734
:100A2000B70778F01092580210925A0210925D02A5
:100A300010925C0281E080935E0210925F0280E07F
:100A400002C080915E02CF9108958093510270930D
:100A5000530260935402EFE4F2E025E532E080E0D7
:100A600090E04191840F911D2E173F07D1F791958A
:100A7000819591099093550280935602809152027C
:100A8000882361F080915F02882341F060E070E08C
:100A9000CB010E94E8030E942204F4CF80913A0225
:100AA00090913B02DC01ED91FC910280F381E02DFD
:100AB0004AE050E06EE472E009952FB7F894809117
:100AC000990190919A01A0919B01B0919C012FBF37
:100AD00080933C0290933D02A0933E02B0933F026C
:100AE0008091520291E0811101C090E090935F02E9
:100AF000811106C06AE070E080E090E00C94E803A9
:100B000008951F920F920FB60F9211242F933F93C7
:100B10008F939F93AF93BF938091990190919A0186
:100B2000A0919B01B0919C013091940123E0230F8F
:100B30002D3720F40196A11DB11D05C026E8230F15
:100B40000296A11DB11D2093940180939901909369
:100B50009A01A0939B01B0939C0180919501909183
:100B60009601A0919701B09198010196A11DB11D28
:100B70008093950190939601A0939701B09398016B
:100B8000BF91AF919F918F913F912F910F900FBE89
:100B90000F901F9018951F920F920FB60F9211246D
:100BA0002F933F934F935F936F937F938F939F9375
:100BB000AF93BF93EF93FF938DE991E00E944701BC
:100BC000FF91EF91BF91AF919F918F917F916F9125
:100BD0005F914F913F912F910F900FBE0F901F90FB
:100BE00018951F920F920FB60F9211242F938F9387
:100BF0009F93EF93FF93E091AD01F091AE0180815F
:100C0000E091B301F091B40182FD12C09081809116
:100C1000B6018F5F8F732091B701821751F0E09179
:100C2000B601F0E0E356FE4F958F8093B60101C008
:100C30008081FF91EF919F918F912F910F900FBE27
:100C40000F901F9018951F920F920FB60F921124BC
:100C50002F933F934F935F936F937F938F939F93C4
:100C6000AF93BF93EF93FF93E0E0F0E00995FF911E
:100C7000EF91BF91AF919F918F917F916F915F9114
:100C80004F913F912F910F900FBE0F901F9018958D
:100C90001F920F920FB60F9211242F933F934F93F1
:100CA0005F936F937F938F939F93AF93BF93EF93D4
:100CB000FF93E0918E01F0918F01309709F451C0BC
:100CC000968DA685B785858591FF04C09C91892363
:100CD00029F447C09C91892309F043C0A389B489B2
:100CE0009C918589809589238C9386899789019722
:100CF000F1F7608D718DA685B785558538E020E0C8
:100D0000CB010197F1F7822F90E095958795282FD9
:100D10004C91452309F02068315091F7868D81FD73
:100D2000209580918D0190E001968F7399273091E5
:100D30008C01381749F0A0918D01B0E0A45BBE4F43
:100D40002C9380938D0103C0868D8160868F828D68
:100D5000938D0197F1F7A389B4899C918589892B9B
:100D60008C93FF91EF91BF91AF919F918F917F9164
:100D70006F915F914F913F912F910F900FBE0F9008
:100D80001F9018951F920F920FB60F9211240F907B
:100D90000FBE0F901F9018954F925F926F927F92A7
:100DA0008F929F92AF92BF92CF92DF92EF92FF927B
:100DB000CF93DF93CDB7DEB72C970FB6F894DEBF95
:100DC0000FBECDBF8091C7029091C802A091C90209
:100DD000B091CA02181619061A061B060CF049C172
:100DE0008090AD029090AE02A090AF02B090B002A1
:100DF00081149104A104B10439F56091D702809166
:100E0000B3020E94EB0261E08091B5020E94EB0206
:100E10000E94C30369877A878B879C87C090D3021F
:100E2000D090D402E090D502F090D6028091C70213
:100E30009091C802A091C902B091CA021816190671
:100E40001A061B0604F1D0C0C090A902D090AA02D5
:100E5000E090AB02F090AC02C114D104E104F104C3
:100E600021F40E94C3036B017C010E94C303DC01D7
:100E7000CB018C199D09AE09BF0988159905AA05F2
:100E8000BB0598F3BACF9C01AD012150310941094E
:100E900051092093C7023093C8024093C90250936E
:100EA000CA028090C3029090C402A090C502B09084
:100EB000C6028FEF881A980AA80AB80A8092C3025D
:100EC0009092C402A092C502B092C6028091BD0267
:100ED0009091BE02019709F087C0211531054105A7
:100EE000510509F481C08091CF029091D002A09168
:100EF000D102B091D20282179307A407B5070CF074
:100F0000E9C04090CB025090CC026090CD0270902E
:100F1000CE02481459046A047B040CF465C0809125
:100F2000A5029091A602A091A702B091A802898380
:100F30009A83AB83BC83D501C40142E0880F991F1B
:100F4000AA1FBB1F4A95D1F79C01AD012F5F3F4FF0
:100F50004F4F5F4F2D833E834F835887D701C60184
:100F6000880F991FAA1FBB1F29813A814B815C8181
:100F7000280F391F4A1F5B1FCA01B9012D813E810D
:100F80004F8158850E946411D701C601821B930BC3
:100F9000A40BB50B8093D3029093D402A093D502F7
:100FA000B093D60284149504A604B7040CF08EC046
:100FB000880F991FAA1FBB1F29813A814B815C8131
:100FC000280F391F4A1F5B1FCA01B9012D813E81BD
:100FD0004F8158850E9464116093A5027093A60208
:100FE0008093A7029093A8020E94C303AB01A98536
:100FF000BA854A1B5B0B5A834983452B79F40E94BF
:10100000C3034B015C010E94C30386169706A80622
:10101000B906C9F321E030E03A83298360E080918A
:10102000B5020E94EB020E94C3036093A902709371
:10103000AA028093AB029093AC0249815A81CA0103
:10104000A0E0B0E08C159D05AE05BF052CF4C81AD4
:10105000D90AEA0AFB0A04C0C12CD12C7601C39438
:10106000C092AD02D092AE02E092AF02F092B00216
:1010700010C01092A9021092AA021092AB02109214
:10108000AC021092AD021092AE021092AF0210921A
:10109000B0026091AD027091AE028091AF0290916A
:1010A000B0022C960FB6F894DEBF0FBECDBFDF9115
:1010B000CF91FF90EF90DF90CF90BF90AF909F9037
:1010C0008F907F906F905F904F90089560E070E0F8
:1010D000CB0182CF8090A5029090A602A090A7029B
:1010E000B090A802ACEFBFEF0E94B5112B013C01FC
:1010F0003FEF431A530A630A730AD701C601880FE8
:10110000991FAA1FBB1FBC01CD01680D791D8A1D47
:101110009B1DA30192010E946411D701C601821B8D
:10112000930BA40BB50B8093D3029093D402A0939E
:10113000D502B093D602880F991FAA1FBB1FBC010E
:10114000CD01680D791D8A1D9B1DA301920142CF1F
:101150002F923F924F925F926F927F928F929F92C7
:10116000AF92BF92CF92DF92EF92FF920F931F93B5
:10117000CF93DF936B017C018091C7029091C802ED
:10118000A091C902B091CA020097A105B10529F149
:10119000DCF34091CF025091D0026091D102709166
:1011A000D202481759076A077B070CF02EC18C0D35
:1011B0009D1DAE1DBF1DF7FE07C084179507A6072E
:1011C000B70714F4DB01CA018093C7029093C802E9
:1011D000A093C902B093CA0218C1D701C601809575
:1011E0009095A095B0958827B7FD83959927AA2754
:1011F000BB279093D8028093D7021092A902109235
:10120000AA021092AB021092AC02F7FE08C0F09452
:10121000E094D094C094C11CD11CE11CF11CC0927C
:10122000C702D092C802E092C902F092CA0210929C
:10123000C3021092C4021092C5021092C60210920C
:10124000A5021092A6021092A7021092A802809105
:10125000BD029091BE022091BB023091BC02009170
:10126000B1021091B202C091B902D091BA020197B5
:1012700009F099C0209FC001219F900D309F900DD3
:1012800011246CE370E00E942E110091BF021091B6
:10129000C0029B01DB010E9489119B01AC01DE01B0
:1012A0000E94B2119801220F331F032E000C440B31
:1012B000550B0E94641149015A012093CB023093CF
:1012C000CC024093CD025093CE022090C1023090C8
:1012D000C2022101032C000C66087708D8010E9485
:1012E000B211A30192010E9464112093CF023093A6
:1012F000D0024093D1025093D202D501C401820F93
:10130000931FA41FB51FC816D906EA06FB061CF5D5
:10131000A7019601C301B2010E941E119801220D7E
:10132000331D032E000C440B550B0E9464112093B7
:10133000CB023093CC024093CD025093CE02C21A1E
:10134000D30AE40AF50AC092CF02D092D002E0920A
:10135000D102F092D202C09FB001C19F700DD09F08
:10136000700D1124072E000C880B990B0E94CA0FD8
:101370009B01AC0160E070E080E090E40E94200FEF
:101380000E94C91020E03AE045E259E40E9456105C
:101390000E94920F6093D3027093D4028093D5027F
:1013A0009093D60232C0032E000C440B550B60E024
:1013B00077E883E993E00E946411CA01B9019801BA
:1013C000110F440B550B0E946411CA01B9019E0113
:1013D000DD0F440B550B0E9464112093D302309310
:1013E000D4024093D5025093D6021092CB021092B1
:1013F000CC021092CD021092CE021092CF02109227
:10140000D0021092D1021092D202DF91CF911F919F
:101410000F91FF90EF90DF90CF90BF90AF909F9093
:101420008F907F906F905F904F903F902F90089596
:10143000009769F0FC0101900020E9F73197AF01B6
:10144000481B590BBC018DE991E00C94D60080E05B
:1014500090E008950F931F93CF93DF93FC01A28533
:10146000B3859C918481892B8C93A681B7819C91B3
:101470008481809589238C938BE090E00197F1F72C
:10148000A681B7819C918481892B8C9383E290E023
:101490000197F1F7A681B7819C918481809589237A
:1014A0008C93A285B3859C918481809589238C93AC
:1014B000A085B1859C918581892309F058C0EF01F1
:1014C0000E94C3032C853D85890120E030E008554A
:1014D000194E2F4F3F4FDC01CB01800F911FA21FF0
:1014E000B31F8E879F87A88BB98BE885F98590817C
:1014F0008D81892361F40E94C3030E851F8528898D
:101500003989061717072807390778F730C00E946E
:10151000C3032C853D85DC01CB01820F931FA11DE8
:10152000B11D8E879F87A88BB98BE885F98590813F
:101530008D81892361F00E94C3030E851F85288950
:101540003989061717072807390778F710C00E944E
:10155000C3032C853D85A901455051092E853F8542
:10156000FA01E21BF30BCF01860F971F02C080E048
:1015700090E0DF91CF911F910F910895CF93DF936A
:10158000CDB7DEB7A3970FB6F894DEBF0FBECDBFC1
:10159000789484B5826084BD84B5816084BD85B54E
:1015A000826085BD85B5816085BD80916E0081605A
:1015B00080936E0010928100809181008260809300
:1015C0008100809181008160809381008091800002
:1015D0008160809380008091B10084608093B1002D
:1015E0008091B00081608093B00080917A00846027
:1015F00080937A0080917A00826080937A00809153
:101600007A00816080937A0080917A00806880936C
:101610007A001092C10061E08091B3020E948703BA
:1016200061E08091B3020E94EB0261E08091B5021B
:101630000E94870360E08091B5020E94EB028091D6
:10164000B7029091B8028F3F2FEF920741F061E00F
:101650000E94870361E08091B7020E94EB0282E062
:1016600090E09093BC028093BB0261E070E083EA5B
:1016700092E00E9438038091B7029091B8028F3FA8
:101680004FEF940719F060E00E94EB028091D902BD
:101690009091DA028F3FEFEF9E07D9F02091DB02A5
:1016A0003091DC022F3F3F4FA1F02091DD023091BD
:1016B000DE022F3F3F4F69F061E00E94870361E047
:1016C0008091DB020E94870361E08091DD020E942D
:1016D0008703E091AD01F091AE0182E08083E0915B
:1016E000A901F091AA011082E091AB01F091AC0147
:1016F0008FEC80831092B501E091B101F091B201BD
:1017000086E08083E091AF01F091B001808180613B
:101710008083E091AF01F091B00180818860808387
:10172000E091AF01F091B001808180688083E09109
:10173000AF01F091B00180818F7D808310927B0298
:1017400010927A0210927902109278021092770227
:10175000109276028DE991E090937D0280937C0255
:1017600090916C02963108F058C02DEB30E0309328
:101770007702209376022BE931E0309379022093AF
:1017800078022CE231E030937B0220937A02409180
:101790006800983058F031E09E3008F430E021E0E5
:1017A000822F01C0880F3A95EAF701C084E0842BAC
:1017B00080936800983038F09E3040F0963148F0C1
:1017C00020E030E008C02DE630E005C02BE630E038
:1017D00002C02CE630E030937402209373029830FC
:1017E00030F481E001C0880F9A95EAF70EC0292FE6
:1017F00030E09E3018F42850310902C02E503109D3
:1018000081E001C0880F2A95EAF7809375028091E4
:101810007C0290917D020197F1F780917A0290917C
:101820007B02892B49F1E0918E01F0918F0182E0DA
:10183000E036F80709F1309739F0A389B4899C9113
:101840008589809589238C9380917E028E7F8093F9
:101850007E0210928D0110928C0180E692E09093AE
:101860008F0180938E01E0917302F0917402908158
:1018700080917502892B808380E692E090933B02F1
:1018800080933A0281E08093520260E070E08CE045
:101890000E9425058FB7F894C0909901D0909A01C5
:1018A000E0909B01F0909C018FBF0E942204811167
:1018B0001AC02FB7F8948091990190919A01A09144
:1018C0009B01B0919C012FBF8C199D09AE09BF09E6
:1018D000813D9740A105B10530F460E070E0CB0197
:1018E0000E94E803E2CF68EC70E080E090E00E94A4
:1018F000E80310925E0280915A02843019F0893018
:1019000009F0EAC084E990E00E94C90269E170E050
:1019100086E00E94250561E086E00E94870389E356
:10192000C82ED12CE12CF12C9AE0492E512C612C9F
:10193000712C28E6822E99249394A12CB12C222478
:101940002394312C8091900190919101892B09F081
:10195000B6C081E992E00E942A0ABC0180E090E0D2
:10196000A70196010E944211203131055CF7232B1B
:1019700049F38091920190919301892B91F5809187
:10198000B7029091B8028F3FFFEF9F0719F060E018
:101990000E94EB022091B1023091B202A2EEBFEFA1
:1019A0000E9489119B01AC01A091B902B091BA02C9
:1019B0000E94B211A50194010E946411CA01B901EB
:1019C0000E94A8080E94CC06672B682B692BD1F7D0
:1019D00062E070E083E00E94250530929101209240
:1019E000900160E177E280E090E00E94E80380915E
:1019F000900190919101019749F5A091B102B091A8
:101A0000B2022EE130E00E94A0119B01AC01A09136
:101A1000B902B091BA020E94B211A50194010E94CC
:101A20006411CA01B9010E94A8080E94CC06672B64
:101A3000682B692BD1F78091B7029091B8028F3F44
:101A40002FEF920719F061E00E94EB0210929101D2
:101A5000109290018FE792E00E942A0ABC0180E078
:101A600090E0A70196010E9442113BA32AA319A26C
:101A70008E010F5D1F4FCA01B901A30192010E949F
:101A80004211605DF80162938F0121153105410516
:101A9000510589F7CF010E94180A85E491E00E9460
:101AA000180A8AA19BA140970CF04CCF61E086E018
:101AB0000E94EB02309293012092920143CF8091D9
:101AC000920190919301019721F461E086E00E94D8
:101AD000EB020E94D80136CF88EE90E00E94C90246
:101AE00087EC90E00E94C9028AEA90E00E94C90255
:101AF00009CFDC0170E0FB01E15CFE4FE49114963C
:101B0000EC93149750E0FA01E15CFE4FE4911596D6
:101B1000EC931597655D7E4FFB018491E82FF0E013
:101B2000EE0FFF1FEF5DFE4F8591949117969C93EA
:101B30008E931697FA01E55DFE4FE491F0E0EE0F0B
:101B4000FF1FE95EFE4F8591949119969C938E93A9
:101B50001897FB016491E62FF0E0EE0FFF1FE750AE
:101B6000FF4F859194911B969C938E931A972F5FAC
:101B70003F4F49E3429FC001439F900D11248E388F
:101B8000FFE69F0710F08DE89FE61D969C938E93CD
:101B90001C9708958BE291E090936102809360021C
:101BA00080918E0190918F018056924071F4E09166
:101BB0007302F0917402908180917502809589235F
:101BC000808310928F0110928E010895CF92DF9240
:101BD000EF92FF921092A00110929F0128EEC22E68
:101BE00023E0D22EE12CF12CC092A101D092A201CF
:101BF000E092A301F092A40189E191E090939E010B
:101C000080939D0185EC90E09093AA018093A901B7
:101C100084EC90E09093AC018093AB0180EC90E079
:101C20009093AE018093AD0181EC90E09093B00170
:101C30008093AF0182EC90E09093B2018093B10168
:101C400086EC90E09093B4018093B3011092B601BA
:101C50001092B7011092B8011092B9011092A90226
:101C60001092AA021092AB021092AC021092AD0236
:101C70001092AE021092AF021092B00288EC90E087
:101C80009093B2028093B1028DE090E09093B40201
:101C90008093B3028CE090E09093B6028093B502FB
:101CA0008BE090E09093B8028093B70281E090E0DF
:101CB0009093BA028093B9021092BC021092BB02B8
:101CC0001092BE021092BD0288EE93E09093C00283
:101CD0008093BF029093C2028093C1028AE090E099
:101CE0009093DA028093D90289E090E09093DC022D
:101CF0008093DB0288E090E09093DE028093DD0227
:101D00008DE391E09093A4028093A30228EC30E04D
:101D100044E065E081E992E00E94790D20E931E03C
:101D20004FE06EE08FE792E00E94790D109263021F
:101D300010926202C0926402D0926502E092660242
:101D4000F09267028BE291E09093610280936002CF
:101D50001092770210927602109279021092780215
:101D600010927B0210927A0210927D0210927C02F5
:101D700060917E026E7F6D7F60937E0266956170DA
:101D800081E0682783E00E94EB0261E083E00E942B
:101D90008703E2E4F1E0E491E0937002EEE2F1E027
:101DA000E491F0E0EE0FFF1FEF5DFE4F85919491FF
:101DB000909372028093710260E082E00E94870338
:101DC00080917E0281FD04C061E082E00E94EB020E
:101DD00082E080936C02E1E4F1E0E491E0936D0233
:101DE000EDE2F1E0E491F0E0EE0FFF1FE95EFE4F5F
:101DF0002591349130936F0220936E0244EF51E0AD
:101E000060E070E0409340025093410260934202D0
:101E1000709343029AE0EBE0F1E0AEE4B2E00190AF
:101E20000D929A95E1F71092580280935902109200
:101E30005E0210925F02FF90EF90DF90CF900895C6
:101E40000E94340F0C941C100E94151058F00E9430
:101E50000E1040F029F45F3F29F00C940510511149
:101E60000C9450100C940B100E942D1068F39923C1
:101E7000B1F3552391F3951B550BBB27AA27621786
:101E80007307840738F09F5F5F4F220F331F441F93
:101E9000AA1FA9F335D00E2E3AF0E0E832D09150C7
:101EA0005040E695001CCAF72BD0FE2F29D0660FB4
:101EB000771F881FBB1F261737074807AB07B0E8F7
:101EC00009F0BB0B802DBF01FF2793585F4F3AF0FD
:101ED0009E3F510578F00C9405100C9450105F3F14
:101EE000E4F3983ED4F3869577956795B795F79583
:101EF0009F5FC9F7880F911D9695879597F908956B
:101F0000E1E0660F771F881FBB1F62177307840706
:101F1000BA0720F0621B730B840BBA0BEE1F88F715
:101F2000E09508950E94990F6894B1110C94501097
:101F300008950E94351088F09F5798F0B92F99277F
:101F4000B751B0F0E1F0660F771F881F991F1AF0A4
:101F5000BA95C9F714C0B13091F00E944F10B1E0AA
:101F600008950C944F10672F782F8827B85F39F0A9
:101F7000B93FCCF3869577956795B395D9F73EF43D
:101F800090958095709561957F4F8F4F9F4F0895E5
:101F9000E89409C097FB3EF4909580957095619503
:101FA0007F4F8F4F9F4F9923A9F0F92F96E9BB27B9
:101FB0009395F695879577956795B795F111F8CF35
:101FC000FAF4BB0F11F460FF1BC06F5F7F4F8F4FA0
:101FD0009F4F16C0882311F096E911C0772321F096
:101FE0009EE8872F762F05C0662371F096E8862F2E
:101FF00070E060E02AF09A95660F771F881FDAF785
:10200000880F9695879597F9089597F99F6780E8C7
:1020100070E060E008959FEF80EC089500240A943A
:102020001616170618060906089500240A941216B3
:102030001306140605060895092E0394000C11F4E6
:10204000882352F0BB0F40F4BF2B11F460FF04C093
:102050006F5F7F4F8F4F9F4F089557FD9058440FEC
:10206000551F59F05F3F71F04795880F97FB991FF7
:1020700061F09F3F79F087950895121613061406B4
:10208000551FF2CF4695F1DF08C016161706180641
:10209000991FF1CF86957105610508940895E8941C
:1020A000BB2766277727CB0197F908950E9469100F
:1020B0000C941C100E940E1038F00E94151020F095
:1020C000952311F00C9405100C940B1011240C9412
:1020D00050100E942D1070F3959FC1F3950F50E0A2
:1020E000551F629FF001729FBB27F00DB11D639FCA
:1020F000AA27F00DB11DAA1F649F6627B00DA11D70
:10210000661F829F2227B00DA11D621F739FB00D15
:10211000A11D621F839FA00D611D221F749F332785
:10212000A00D611D231F849F600D211D822F762F1E
:102130006A2F11249F5750409AF0F1F088234AF0FB
:10214000EE0FFF1FBB1F661F771F881F9150504067
:10215000A9F79E3F510580F00C9405100C94501087
:102160005F3FE4F3983ED4F3869577956795B795EE
:10217000F795E7959F5FC1F7FE2B880F911D969508
:10218000879597F9089519F416F40C940B100C9494
:1021900009110E943510B8F39923C9F3B6F39F577C
:1021A000550B87FF0E9417110024A0E640EA90011A
:1021B00080585695979528F4805C660F771F881F86
:1021C00020F026173707480730F4621B730B840B87
:1021D000202931294A2BA6951794079420253125CB
:1021E0004A2758F7660F771F881F20F026173707F2
:1021F000480730F4620B730B840B200D311D411D19
:10220000A09581F7B901842F9158880F96958795ED
:1022100008959F3F31F0915020F487957795679509
:10222000B795880F911D9695879597F908959150C8
:102230005040660F771F881FD2F70895DB018F93F8
:102240009F930E94A711BF91AF91A29F800D911DF6
:10225000A39F900DB29F900D1124089597FB072E18
:1022600016F4009407D077FD09D00E94BA1107FC3C
:1022700005D03EF4909581959F4F08957095619596
:102280007F4F0895A1E21A2EAA1BBB1BFD010DC0B2
:10229000AA1FBB1FEE1FFF1FA217B307E407F50716
:1022A00020F0A21BB30BE40BF50B661F771F881FF2
:1022B000991F1A9469F760957095809590959B0188
:1022C000AC01BD01CF010895052E97FB1EF40094CB
:1022D0000E947B1157FD07D00E94421107FC03D0DA
:1022E0004EF40C947B1150954095309521953F4FBD
:1022F0004F4F5F4F089590958095709561957F4FF2
:102300008F4F9F4F0895EE0FFF1F0590F491E02D22
:1023100009940E949111332312F48A1B9B0B0C9495
:10232000A211A29FB001B39FC001A39F700D811D98
:102330001124911DB29F700D811D1124911D0895CE
:102340000E949111B7FF0895821B930B08950E947C
:102350009111A59F900DB49F900DA49F800D911D8C
:1023600011240895B7FF0C94A7110E94A711821B96
:10237000930B0895AA1BBB1B51E107C0AA1FBB1FEB
:10238000A617B70710F0A61BB70B881F991F5A9501
:10239000A9F780959095BC01CD01089581E090E06A
:1023A000F8940C94D31110E0CBEAD0E004C0FE0105
:1023B0000E9483112196CC3AD107C9F7F894FFCF38
:1023C00000010203070001020304077EFF0600016B
:1023D00000000000EF000000006901D6000001B617
:1023E0000131010F01230100000000FB01D600852F
:1023F00002FA014B026302E2010000000088023889
:08240000038E028B020D0A009D
:00000001FF
